S00C00004C6162362E73726563D3
S113000045C000004BC0000049C0000047C00000CC
S113001045C0000043C0000041C000003FC00000D4
S11300203DC000003BC0000039C0000037C00000E4
S113003035C0000033C0000031C000002FC00000F4
S11300402DC000002BC0000029C0000027C0000004
S113005025C0000023C0000021C000001FC0000014
S11300601DC000001BC0000019C0000017C0000024
S113007015C0000013C0000011C000000FC0000034
S11300800DC000000BC0000009C0000011241FBEF9
S1130090CFEFD0E4DEBFCDBFFBD0ACC1B1CF00C049
S11300A0E1E0E4B920E8662F582F742F862F8223CD
S11300B011F41AD002C027D000C02695B9F720E861
S11300C0852F822311F410D002C01DD000C02695C4
S11300D0B9F720E8872F822311F406D002C013D089
S11300E000C02695B9F7089541E045B90000000025
S11300F00000000040E045B90000000000000000DE
S113010000000000089541E045B90000000000002F
S113011000000000000000000000000000000000DB
S113012040E045B90895AFE003D0AA95E9F70895F2
S1130130BFEF0000000000000000BA95D1F7089559
S11301405FEF61E071E0ACDFFFCFEAE7F0E08081D0
S113015087608083ACE7B0E08C9180648C938C9151
S113016080628C938081806880830895ECE7F0E05E
S11301709081907F90839081892B8083EAE7F0E0DF
S1130180808180648083808184FFFDCFEAE7F0E092
S11301908081806180838091790008956F927F923D
S11301A08F929F92AF92BF92CF92DF92EF92FF9283
S11301B00F931F93CF93DF936C014B01EA01590115
S11301C037010F2EF8EEEF2EF3E0FF2EF02D80E036
S11301D0CDDF90E0F60120813181281739071CF426
S11301E09183808308C0F4012081318182179307B1
S11301F014F4918380838FE697E10197F1F700C0AF
S1130200000081E0B3DF90E02881398128173907A5
S11302101CF49983888308C0F501208131818217F9
S1130220930714F4918380838FE697E10197F1F7A4
S113023000C0000082E09ADF90E0F8012081318163
S1130240281739071CF49183808308C0F3012081A7
S113025031818217930714F4918380838FE697E1A9
S11302600197F1F700C0000091E0E91AF10809F0E4
S1130270AECFDF91CF911F910F91FF90EF90DF9060
S1130280CF90BF90AF909F908F907F906F90089584
S1130290CF93DF93CDB7DEB72C970FB6F894DEBFBC
S11302A00FBECDBF1A8219821C821B821E821D8240
S11302B0AA24AA94B12CB886AF82BA86A986BC8631
S11302C0AB8640E060E08FEFEBDE3FDFCE010B96C4
S11302D07C018E010B5F1F4F9E01275F3F4FAE01D4
S11302E04D5F5F4FBE01695F7F4F0A9757DF40E064
S11302F06FEF80E0D5DE9FEF29E688E19150204042
S11303008040E1F700C0000069817A818F8198857F
S1130310681B790BC50147D0D62E6B817C818985FA
S11303209A85681B790BC5013ED0E62E6D817E81CE
S11303308B859C85681B790BC50135D0F62E80E032
S113034015DF9F81891B8D9D102D112487E592E077
S11303500197F1F700C0000081E008DF9985891B4F
S11303608E9D002D112487E592E00197F1F700C0DE
S1130370000082E0FBDE9B85891B8F9D402D1124AC
S11303801E3108F410E00E3108F400E04E3108F498
S113039040E0602F812F84DE8FE19EE40197F1F726
S11303A000C00000CCCF97FB072E16F4009406D0B3
S11303B077FD08D00BD007FC05D03EF490958195CD
S11303C09F4F0895709561957F4F0895AA1BBB1B9D
S11303D051E107C0AA1FBB1FA617B70710F0A61B41
S11303E0B70B881F991F5A95A9F780959095BC0162
S10B03F0CD010895F894FFCF3C
S9030000FC
